:060000000A128A110C280F
:10000800FE00030EF1000A08F2000A128A111428F1
:100018000A128A110F28F30183010A128A112F2864
:10002800831203130C1C19281A2828280130F00001
:100038007008F3070F307306031D23282428272888
:1000480001308606F3010C1072088A00710E8300D5
:10005800FE0E7E0E09008316031386018312031316
:100068000610013090000B178B170C108316031322
:0A0078000C143D280A128A110C280E
:02400E00713F00
:00000001FF
